{
  "transactions": [
    {
      "hash": null,
      "transactionType": "CALL",
      "contractName": null,
      "contractAddress": "0x61c36a8d610163660e21a8b7359e1cac0c9133e1",
      "function": "buyTicketWithETH(uint256)",
      "arguments": [
        "1"
      ],
      "transaction": {
        "from": "0x70997970c51812dc3a010c7d01b50e0d17dc79c8",
        "to": "0x61c36a8d610163660e21a8b7359e1cac0c9133e1",
        "gas": "0x1f597",
        "value": "0x16345785d8a0000",
        "input": "0xedf47d670000000000000000000000000000000000000000000000000000000000000001",
        "nonce": "0x0",
        "chainId": "0x7a69"
      },
      "additionalContracts": [],
      "isFixedGasLimit": false
    },
    {
      "hash": null,
      "transactionType": "CALL",
      "contractName": null,
      "contractAddress": "0x23db4a08f2272df049a4932a4cc3a6dc1002b33e",
      "function": "buyTicketWithETH(uint256)",
      "arguments": [
        "1"
      ],
      "transaction": {
        "from": "0x70997970c51812dc3a010c7d01b50e0d17dc79c8",
        "to": "0x23db4a08f2272df049a4932a4cc3a6dc1002b33e",
        "gas": "0x1e829",
        "value": "0x0",
        "input": "0xedf47d670000000000000000000000000000000000000000000000000000000000000001",
        "nonce": "0x1",
        "chainId": "0x7a69"
      },
      "additionalContracts": [],
      "isFixedGasLimit": false
    }
  ],
  "receipts": [],
  "libraries": [],
  "pending": [],
  "returns": {},
  "timestamp": 1754580449,
  "chain": 31337,
  "commit": "f9772bd"
}