{
  "transactions": [
    {
      "hash": "0x32a6aba7230effd64aeac9ed1ede4cdfa7fb62a1bdabd7e3c0b91a699589282f",
      "transactionType": "CALL",
      "contractName": null,
      "contractAddress": "0xcae2a0cda28ce54c0f95a13f8816ec72dbd1c080",
      "function": "createEvent(string,string,uint256,uint256,uint256,uint256,string,string)",
      "arguments": [
        "Blockchain Conference 2025",
        "Annual blockchain and cryptocurrency conference",
        "100000000000000000000",
        "1000",
        "1754755446",
        "1754841846",
        "Convention Center, Downtown",
        "https://ipfs.io/ipfs/dee735a9-f2fe-414a-acaa-b3124e9d2240"
      ],
      "transaction": {
        "from": "0x4a78dfc52566063f50f8cf4ed52f513aeb866a0c",
        "to": "0xcae2a0cda28ce54c0f95a13f8816ec72dbd1c080",
        "gas": "0x7bf33",
        "value": "0x0",
        "input": "0x4b8d7859000000000000000000000000000000000000000000000000000000000000010000000000000000000000000000000000000000000000000000000000000001400000000000000000000000000000000000000000000000056bc75e2d6310000000000000000000000000000000000000000000000000000000000000000003e80000000000000000000000000000000000000000000000000000000068977176000000000000000000000000000000000000000000000000000000006898c2f600000000000000000000000000000000000000000000000000000000000001a000000000000000000000000000000000000000000000000000000000000001e0000000000000000000000000000000000000000000000000000000000000001a426c6f636b636861696e20436f6e666572656e63652032303235000000000000000000000000000000000000000000000000000000000000000000000000002f416e6e75616c20626c6f636b636861696e20616e642063727970746f63757272656e637920636f6e666572656e63650000000000000000000000000000000000000000000000000000000000000000000000000000000000000000000000001b436f6e76656e74696f6e2043656e7465722c20446f776e746f776e0000000000000000000000000000000000000000000000000000000000000000000000003968747470733a2f2f697066732e696f2f697066732f64656537333561392d663266652d343134612d616361612d62333132346539643232343000000000000000",
        "nonce": "0x2a",
        "chainId": "0x106a"
      },
      "additionalContracts": [],
      "isFixedGasLimit": false
    }
  ],
  "receipts": [
    {
      "status": "0x1",
      "cumulativeGasUsed": "0x60061",
      "logs": [
        {
          "address": "0xcae2a0cda28ce54c0f95a13f8816ec72dbd1c080",
          "topics": [
            "0xd023c274861efa10779d76bbd0627e0bf4cae2ffd5ba380c748f3e8c90adb82b",
            "0x0000000000000000000000000000000000000000000000000000000000000000"
          ],
          "data": "0x00000000000000000000000000000000000000000000000000000000000000a00000000000000000000000000000000000000000000000056bc75e2d6310000000000000000000000000000000000000000000000000000000000000000003e80000000000000000000000000000000000000000000000000000000068977176000000000000000000000000000000000000000000000000000000006898c2f6000000000000000000000000000000000000000000000000000000000000001a426c6f636b636861696e20436f6e666572656e63652032303235000000000000",
          "blockHash": "0xefd222abaef71a076f1c68e7387ec9e53d9774cb31850689e02cb840f0ea1ade",
          "blockNumber": "0x1788e95",
          "transactionHash": "0x32a6aba7230effd64aeac9ed1ede4cdfa7fb62a1bdabd7e3c0b91a699589282f",
          "transactionIndex": "0x1",
          "logIndex": "0x0",
          "removed": false
        }
      ],
      "logsBloom": "0x00000000000000000000000000000000000000000000000000000010000000000000000000000000000000000000000000000000001000000000000000000000000000000000000000000000000000000000000000000000000000000000000000000000020000000000000000000800000000000000000000000000000000000000000020000000000000000000000000000000000000000000000000000000000000000000000000000000000000008000008000000000000000000000000000000000000000000000000000000000000001000000000000000000000020000000000000000000000000000000000000000000000000000000000000000000",
      "type": "0x2",
      "transactionHash": "0x32a6aba7230effd64aeac9ed1ede4cdfa7fb62a1bdabd7e3c0b91a699589282f",
      "transactionIndex": "0x1",
      "blockHash": "0xefd222abaef71a076f1c68e7387ec9e53d9774cb31850689e02cb840f0ea1ade",
      "blockNumber": "0x1788e95",
      "gasUsed": "0x54c09",
      "effectiveGasPrice": "0xf433d",
      "from": "0x4a78dfc52566063f50f8cf4ed52f513aeb866a0c",
      "to": "0xcae2a0cda28ce54c0f95a13f8816ec72dbd1c080",
      "contractAddress": null,
      "l1BaseFeeScalar": "0x2af8",
      "l1BlobBaseFee": "0x3489fcd",
      "l1BlobBaseFeeScalar": "0x109618",
      "l1Fee": "0x3c355ca1c",
      "l1GasPrice": "0x191257",
      "l1GasUsed": "0x10c9"
    }
  ],
  "libraries": [],
  "pending": [],
  "returns": {},
  "timestamp": 1754669067,
  "chain": 4202,
  "commit": "96395ed"
}