{
  "transactions": [
    {
      "hash": "0x9af11bdc33ebbffa46b34825d89f779b0c3879221e6f8754dd950c1e3f001031",
      "transactionType": "CALL",
      "contractName": null,
      "contractAddress": "0x187d3086570fded78972a4ae8e2db2471a1e3fc8",
      "function": "approve(address,uint256)",
      "arguments": [
        "0xA02409fB50c90D97304fF37230e2202E3EA384be",
        "50000000000000000000"
      ],
      "transaction": {
        "from": "0xf070f568c125b2740391136662fc600a2a29d2a6",
        "to": "0x187d3086570fded78972a4ae8e2db2471a1e3fc8",
        "gas": "0xfd42",
        "value": "0x0",
        "input": "0x095ea7b3000000000000000000000000a02409fb50c90d97304ff37230e2202e3ea384be000000000000000000000000000000000000000000000002b5e3af16b1880000",
        "nonce": "0x17",
        "chainId": "0x106a"
      },
      "additionalContracts": [],
      "isFixedGasLimit": false
    },
    {
      "hash": "0xca48e5500d837ac4f8ff459ac6883df239d9d8a43f4b51df872245189bf33209",
      "transactionType": "CALL",
      "contractName": null,
      "contractAddress": "0xa02409fb50c90d97304ff37230e2202e3ea384be",
      "function": "buyTicket(uint256,string)",
      "arguments": [
        "1",
        "https://emerald-tropical-pinniped-712.mypinata.cloud/ipfs/bafkreic7ty3mmq26yncese7q6skvzhjllsj5vp5p5lpol4uaq"
      ],
      "transaction": {
        "from": "0xf070f568c125b2740391136662fc600a2a29d2a6",
        "to": "0xa02409fb50c90d97304ff37230e2202e3ea384be",
        "gas": "0x583f5",
        "value": "0x0",
        "input": "0x9afb93cb00000000000000000000000000000000000000000000000000000000000000010000000000000000000000000000000000000000000000000000000000000040000000000000000000000000000000000000000000000000000000000000006c68747470733a2f2f656d6572616c642d74726f706963616c2d70696e6e697065642d3731322e6d7970696e6174612e636c6f75642f697066732f6261666b72656963377479336d6d713236796e63657365377136736b767a686a6c6c736a3576703570356c706f6c347561710000000000000000000000000000000000000000",
        "nonce": "0x18",
        "chainId": "0x106a"
      },
      "additionalContracts": [],
      "isFixedGasLimit": false
    }
  ],
  "receipts": [
    {
      "status": "0x1",
      "cumulativeGasUsed": "0x16ba8",
      "logs": [
        {
          "address": "0x187d3086570fded78972a4ae8e2db2471a1e3fc8",
          "topics": [
            "0x8c5be1e5ebec7d5bd14f71427d1e84f3dd0314c0f7b2291e5b200ac8c7c3b925",
            "0x000000000000000000000000f070f568c125b2740391136662fc600a2a29d2a6",
            "0x000000000000000000000000a02409fb50c90d97304ff37230e2202e3ea384be"
          ],
          "data": "0x000000000000000000000000000000000000000000000002b5e3af16b1880000",
          "blockHash": "0x41480a1091245efae441f1e6c1f9099401f027c40800e741b537b0b40628f74e",
          "blockNumber": "0x178fa27",
          "transactionHash": "0x9af11bdc33ebbffa46b34825d89f779b0c3879221e6f8754dd950c1e3f001031",
          "transactionIndex": "0x1",
          "logIndex": "0x0",
          "removed": false
        }
      ],
      "logsBloom": "0x00000000000000000000000000000000000000000000000000000000000000000000000000000000000000000000000000000000000000000000000000200000000200000000000000000000050000000000000000000000000000000000000000000000040000004000004000000000000000000000000000000000000000000000000000000000000000000000000000000000000000000000000000000000020000000000000000000000000000000000000000000000000400000000000080000000000000000000000000000000000000000000000000000000000000000010000000000000000000000000000800000000000000000000000000000000",
      "type": "0x2",
      "transactionHash": "0x9af11bdc33ebbffa46b34825d89f779b0c3879221e6f8754dd950c1e3f001031",
      "transactionIndex": "0x1",
      "blockHash": "0x41480a1091245efae441f1e6c1f9099401f027c40800e741b537b0b40628f74e",
      "blockNumber": "0x178fa27",
      "gasUsed": "0xb75c",
      "effectiveGasPrice": "0xfe",
      "from": "0xf070f568c125b2740391136662fc600a2a29d2a6",
      "to": "0x187d3086570fded78972a4ae8e2db2471a1e3fc8",
      "contractAddress": null,
      "l1BaseFeeScalar": "0x2af8",
      "l1BlobBaseFee": "0x159e0a2b",
      "l1BlobBaseFeeScalar": "0x109618",
      "l1Fee": "0x92ddd8326",
      "l1GasPrice": "0xdfed",
      "l1GasUsed": "0x640"
    },
    {
      "status": "0x1",
      "cumulativeGasUsed": "0x569e4",
      "logs": [
        {
          "address": "0x187d3086570fded78972a4ae8e2db2471a1e3fc8",
          "topics": [
            "0xddf252ad1be2c89b69c2b068fc378daa952ba7f163c4a11628f55a4df523b3ef",
            "0x000000000000000000000000f070f568c125b2740391136662fc600a2a29d2a6",
            "0x000000000000000000000000f070f568c125b2740391136662fc600a2a29d2a6"
          ],
          "data": "0x000000000000000000000000000000000000000000000002b5e3af16b1880000",
          "blockHash": "0x41480a1091245efae441f1e6c1f9099401f027c40800e741b537b0b40628f74e",
          "blockNumber": "0x178fa27",
          "transactionHash": "0xca48e5500d837ac4f8ff459ac6883df239d9d8a43f4b51df872245189bf33209",
          "transactionIndex": "0x2",
          "logIndex": "0x1",
          "removed": false
        },
        {
          "address": "0x3cd5208fb6536b94acfa01a247815e1962dec2cb",
          "topics": [
            "0xddf252ad1be2c89b69c2b068fc378daa952ba7f163c4a11628f55a4df523b3ef",
            "0x0000000000000000000000000000000000000000000000000000000000000000",
            "0x000000000000000000000000f070f568c125b2740391136662fc600a2a29d2a6",
            "0x0000000000000000000000000000000000000000000000000000000000000000"
          ],
          "data": "0x",
          "blockHash": "0x41480a1091245efae441f1e6c1f9099401f027c40800e741b537b0b40628f74e",
          "blockNumber": "0x178fa27",
          "transactionHash": "0xca48e5500d837ac4f8ff459ac6883df239d9d8a43f4b51df872245189bf33209",
          "transactionIndex": "0x2",
          "logIndex": "0x2",
          "removed": false
        },
        {
          "address": "0x3cd5208fb6536b94acfa01a247815e1962dec2cb",
          "topics": [
            "0xf8e1a15aba9398e019f0b49df1a4fde98ee17ae345cb5f6b5e2c27f5033e8ce7"
          ],
          "data": "0x0000000000000000000000000000000000000000000000000000000000000000",
          "blockHash": "0x41480a1091245efae441f1e6c1f9099401f027c40800e741b537b0b40628f74e",
          "blockNumber": "0x178fa27",
          "transactionHash": "0xca48e5500d837ac4f8ff459ac6883df239d9d8a43f4b51df872245189bf33209",
          "transactionIndex": "0x2",
          "logIndex": "0x3",
          "removed": false
        }
      ],
      "logsBloom": "0x00000000000000000000000000000000000000000000000000000000000000000200000000000000000000000000000000000000000000000000000000000000000200000000000000000008050000000000000000000000000000000000000000000000020000004000000000000800000000000000000000000010000000000000000000000000000002000000000000000000000000000000000000000000000000000000000000000000000000002000000000000000000000400000008080000002000000000000000000000000000000000000000000000000000020000000000000000000200000000000000800000000000000000000000000000000",
      "type": "0x2",
      "transactionHash": "0xca48e5500d837ac4f8ff459ac6883df239d9d8a43f4b51df872245189bf33209",
      "transactionIndex": "0x2",
      "blockHash": "0x41480a1091245efae441f1e6c1f9099401f027c40800e741b537b0b40628f74e",
      "blockNumber": "0x178fa27",
      "gasUsed": "0x3fe3c",
      "effectiveGasPrice": "0xfe",
      "from": "0xf070f568c125b2740391136662fc600a2a29d2a6",
      "to": "0xa02409fb50c90d97304ff37230e2202e3ea384be",
      "contractAddress": null,
      "l1BaseFeeScalar": "0x2af8",
      "l1BlobBaseFee": "0x159e0a2b",
      "l1BlobBaseFeeScalar": "0x109618",
      "l1Fee": "0xf49739845",
      "l1GasPrice": "0xdfed",
      "l1GasUsed": "0xa68"
    }
  ],
  "libraries": [],
  "pending": [],
  "returns": {},
  "timestamp": 1754724143,
  "chain": 4202,
  "commit": "55d3a7f"
}