{
  "transactions": [
    {
      "hash": "0x77abe7cebad75d4c610192ab8a4e630a98687474ff84e4e4757d2e7289373fc8",
      "transactionType": "CREATE",
      "contractName": "TestERC20",
      "contractAddress": "0xc8ae088da539f0df6aec3b3c315f5010966d73f6",
      "function": null,
      "arguments": [
        "TestToken",
        "TT",
        "18"
      ],
      "transaction": {
        "from": "0x838abf92e994e088e641399e91ace43514038b90",
        "gas": "0xc2fab",
        "value": "0x0",
        "input": "0x608060405234801561000f575f5ffd5b50604051610dec380380610dec833981810160405281019061003191906101f5565b825f908161003f919061048d565b50816001908161004f919061048d565b508060025f6101000a81548160ff021916908360ff16021790555050505061055c565b5f604051905090565b5f5ffd5b5f5ffd5b5f5ffd5b5f5ffd5b5f601f19601f8301169050919050565b7f4e487b71000000000000000000000000000000000000000000000000000000005f52604160045260245ffd5b6100d18261008b565b810181811067ffffffffffffffff821117156100f0576100ef61009b565b5b80604052505050565b5f610102610072565b905061010e82826100c8565b919050565b5f67ffffffffffffffff82111561012d5761012c61009b565b5b6101368261008b565b9050602081019050919050565b8281835e5f83830152505050565b5f61016361015e84610113565b6100f9565b90508281526020810184848401111561017f5761017e610087565b5b61018a848285610143565b509392505050565b5f82601f8301126101a6576101a5610083565b5b81516101b6848260208601610151565b91505092915050565b5f60ff82169050919050565b6101d4816101bf565b81146101de575f5ffd5b50565b5f815190506101ef816101cb565b92915050565b5f5f5f6060848603121561020c5761020b61007b565b5b5f84015167ffffffffffffffff8111156102295761022861007f565b5b61023586828701610192565b935050602084015167ffffffffffffffff8111156102565761025561007f565b5b61026286828701610192565b9250506040610273868287016101e1565b9150509250925092565b5f81519050919050565b7f4e487b71000000000000000000000000000000000000000000000000000000005f52602260045260245ffd5b5f60028204905060018216806102cb57607f821691505b6020821081036102de576102dd610287565b5b50919050565b5f819050815f5260205f209050919050565b5f6020601f8301049050919050565b5f82821b905092915050565b5f600883026103407fffffffffffffffffffffffffffffffffffffffffffffffffffffffffffffffff82610305565b61034a8683610305565b95508019841693508086168417925050509392505050565b5f819050919050565b5f819050919050565b5f61038e61038961038484610362565b61036b565b610362565b9050919050565b5f819050919050565b6103a783610374565b6103bb6103b382610395565b848454610311565b825550505050565b5f5f905090565b6103d26103c3565b6103dd81848461039e565b505050565b5b81811015610400576103f55f826103ca565b6001810190506103e3565b5050565b601f82111561044557610416816102e4565b61041f846102f6565b8101602085101561042e578190505b61044261043a856102f6565b8301826103e2565b50505b505050565b5f82821c905092915050565b5f6104655f198460080261044a565b1980831691505092915050565b5f61047d8383610456565b9150826002028217905092915050565b6104968261027d565b67ffffffffffffffff8111156104af576104ae61009b565b5b6104b982546102b4565b6104c4828285610404565b5f60209050601f8311600181146104f5575f84156104e3578287015190505b6104ed8582610472565b865550610554565b601f198416610503866102e4565b5f5b8281101561052a57848901518255600182019150602085019450602081019050610505565b868310156105475784890151610543601f891682610456565b8355505b6001600288020188555050505b505050505050565b610883806105695f395ff3fe608060405234801561000f575f5ffd5b506004361061007b575f3560e01c806340c10f191161005957806340c10f19146100d957806370a08231146100f557806395d89b4114610125578063a9059cbb146101435761007b565b806306fdde031461007f57806318160ddd1461009d578063313ce567146100bb575b5f5ffd5b610087610173565b604051610094919061057f565b60405180910390f35b6100a56101fe565b6040516100b291906105b7565b60405180910390f35b6100c3610204565b6040516100d091906105eb565b60405180910390f35b6100f360048036038101906100ee919061068c565b610216565b005b61010f600480360381019061010a91906106ca565b6102ea565b60405161011c91906105b7565b60405180910390f35b61012d6102ff565b60405161013a919061057f565b60405180910390f35b61015d6004803603810190610158919061068c565b61038b565b60405161016a919061070f565b60405180910390f35b5f805461017f90610755565b80601f01602080910402602001604051908101604052809291908181526020018280546101ab90610755565b80156101f65780601f106101cd576101008083540402835291602001916101f6565b820191905f5260205f20905b8154815290600101906020018083116101d957829003601f168201915b505050505081565b60035481565b60025f9054906101000a900460ff1681565b8060035f82825461022791906107b2565b925050819055508060045f8473ffffffffffffffffffffffffffffffffffffffff1673ffffffffffffffffffffffffffffffffffffffff1681526020019081526020015f205f82825461027a91906107b2565b925050819055508173ffffffffffffffffffffffffffffffffffffffff165f73ffffffffffffffffffffffffffffffffffffffff167fddf252ad1be2c89b69c2b068fc378daa952ba7f163c4a11628f55a4df523b3ef836040516102de91906105b7565b60405180910390a35050565b6004602052805f5260405f205f915090505481565b6001805461030c90610755565b80601f016020809104026020016040519081016040528092919081815260200182805461033890610755565b80156103835780601f1061035a57610100808354040283529160200191610383565b820191905f5260205f20905b81548152906001019060200180831161036657829003601f168201915b505050505081565b5f8160045f3373ffffffffffffffffffffffffffffffffffffffff1673ffffffffffffffffffffffffffffffffffffffff1681526020019081526020015f2054101561040c576040517f08c379a00000000000000000000000000000000000000000000000000000000081526004016104039061082f565b60405180910390fd5b8160045f3373ffffffffffffffffffffffffffffffffffffffff1673ffffffffffffffffffffffffffffffffffffffff1681526020019081526020015f205f82825403925050819055508160045f8573ffffffffffffffffffffffffffffffffffffffff1673ffffffffffffffffffffffffffffffffffffffff1681526020019081526020015f205f82825401925050819055508273ffffffffffffffffffffffffffffffffffffffff163373ffffffffffffffffffffffffffffffffffffffff167fddf252ad1be2c89b69c2b068fc378daa952ba7f163c4a11628f55a4df523b3ef846040516104fd91906105b7565b60405180910390a36001905092915050565b5f81519050919050565b5f82825260208201905092915050565b8281835e5f83830152505050565b5f601f19601f8301169050919050565b5f6105518261050f565b61055b8185610519565b935061056b818560208601610529565b61057481610537565b840191505092915050565b5f6020820190508181035f8301526105978184610547565b905092915050565b5f819050919050565b6105b18161059f565b82525050565b5f6020820190506105ca5f8301846105a8565b92915050565b5f60ff82169050919050565b6105e5816105d0565b82525050565b5f6020820190506105fe5f8301846105dc565b92915050565b5f5ffd5b5f73ffffffffffffffffffffffffffffffffffffffff82169050919050565b5f61063182610608565b9050919050565b61064181610627565b811461064b575f5ffd5b50565b5f8135905061065c81610638565b92915050565b61066b8161059f565b8114610675575f5ffd5b50565b5f8135905061068681610662565b92915050565b5f5f604083850312156106a2576106a1610604565b5b5f6106af8582860161064e565b92505060206106c085828601610678565b9150509250929050565b5f602082840312156106df576106de610604565b5b5f6106ec8482850161064e565b91505092915050565b5f8115159050919050565b610709816106f5565b82525050565b5f6020820190506107225f830184610700565b92915050565b7f4e487b71000000000000000000000000000000000000000000000000000000005f52602260045260245ffd5b5f600282049050600182168061076c57607f821691505b60208210810361077f5761077e610728565b5b50919050565b7f4e487b71000000000000000000000000000000000000000000000000000000005f52601160045260245ffd5b5f6107bc8261059f565b91506107c78361059f565b92508282019050808211156107df576107de610785565b5b92915050565b7f62616c00000000000000000000000000000000000000000000000000000000005f82015250565b5f610819600383610519565b9150610824826107e5565b602082019050919050565b5f6020820190508181035f8301526108468161080d565b905091905056fea2646970667358221220a8189d3fbaf5eec52e11dc19837621872f2b5bb0053ccaf38a677f3e5cc1af4e64736f6c634300081c0033000000000000000000000000000000000000000000000000000000000000006000000000000000000000000000000000000000000000000000000000000000a00000000000000000000000000000000000000000000000000000000000000012000000000000000000000000000000000000000000000000000000000000000954657374546f6b656e000000000000000000000000000000000000000000000000000000000000000000000000000000000000000000000000000000000000025454000000000000000000000000000000000000000000000000000000000000",
        "nonce": "0x5a",
        "chainId": "0xaa36a7"
      },
      "additionalContracts": [],
      "isFixedGasLimit": false
    },
    {
      "hash": "0x0a54ac2a81f85d17ef1b0fa59309fc9ed4f297d5e2d24090a97232920a2a5664",
      "transactionType": "CREATE",
      "contractName": "TestERC721",
      "contractAddress": "0xdacab339b2162a23a8e795d992b81a34dc54a1f2",
      "function": null,
      "arguments": [
        "TestNFT",
        "TNFT"
      ],
      "transaction": {
        "from": "0x838abf92e994e088e641399e91ace43514038b90",
        "gas": "0x1882ca",
        "value": "0x0",
        "input": "0x608060405234801561000f575f5ffd5b50604051611940380380611940833981810160405281019061003191906101a4565b815f908161003f919061042a565b50806001908161004f919061042a565b5050506104f9565b5f604051905090565b5f5ffd5b5f5ffd5b5f5ffd5b5f5ffd5b5f601f19601f8301169050919050565b7f4e487b71000000000000000000000000000000000000000000000000000000005f52604160045260245ffd5b6100b682610070565b810181811067ffffffffffffffff821117156100d5576100d4610080565b5b80604052505050565b5f6100e7610057565b90506100f382826100ad565b919050565b5f67ffffffffffffffff82111561011257610111610080565b5b61011b82610070565b9050602081019050919050565b8281835e5f83830152505050565b5f610148610143846100f8565b6100de565b9050828152602081018484840111156101645761016361006c565b5b61016f848285610128565b509392505050565b5f82601f83011261018b5761018a610068565b5b815161019b848260208601610136565b91505092915050565b5f5f604083850312156101ba576101b9610060565b5b5f83015167ffffffffffffffff8111156101d7576101d6610064565b5b6101e385828601610177565b925050602083015167ffffffffffffffff81111561020457610203610064565b5b61021085828601610177565b9150509250929050565b5f81519050919050565b7f4e487b71000000000000000000000000000000000000000000000000000000005f52602260045260245ffd5b5f600282049050600182168061026857607f821691505b60208210810361027b5761027a610224565b5b50919050565b5f819050815f5260205f209050919050565b5f6020601f8301049050919050565b5f82821b905092915050565b5f600883026102dd7fffffffffffffffffffffffffffffffffffffffffffffffffffffffffffffffff826102a2565b6102e786836102a2565b95508019841693508086168417925050509392505050565b5f819050919050565b5f819050919050565b5f61032b610326610321846102ff565b610308565b6102ff565b9050919050565b5f819050919050565b61034483610311565b61035861035082610332565b8484546102ae565b825550505050565b5f5f905090565b61036f610360565b61037a81848461033b565b505050565b5b8181101561039d576103925f82610367565b600181019050610380565b5050565b601f8211156103e2576103b381610281565b6103bc84610293565b810160208510156103cb578190505b6103df6103d785610293565b83018261037f565b50505b505050565b5f82821c905092915050565b5f6104025f19846008026103e7565b1980831691505092915050565b5f61041a83836103f3565b9150826002028217905092915050565b6104338261021a565b67ffffffffffffffff81111561044c5761044b610080565b5b6104568254610251565b6104618282856103a1565b5f60209050601f831160018114610492575f8415610480578287015190505b61048a858261040f565b8655506104f1565b601f1984166104a086610281565b5f5b828110156104c7578489015182556001820191506020850194506020810190506104a2565b868310156104e457848901516104e0601f8916826103f3565b8355505b6001600288020188555050505b505050505050565b61143a806105065f395ff3fe608060405234801561000f575f5ffd5b5060043610610091575f3560e01c80636352211e116100645780636352211e1461011b57806370a082311461014b57806395d89b411461017b578063a144819414610199578063b88d4fde146101b557610091565b806306fdde0314610095578063081812fc146100b3578063095ea7b3146100e357806342842e0e146100ff575b5f5ffd5b61009d6101d1565b6040516100aa9190610d8d565b60405180910390f35b6100cd60048036038101906100c89190610de8565b61025c565b6040516100da9190610e52565b60405180910390f35b6100fd60048036038101906100f89190610e95565b61028c565b005b61011960048036038101906101149190610ed3565b61037d565b005b61013560048036038101906101309190610de8565b610758565b6040516101429190610e52565b60405180910390f35b61016560048036038101906101609190610f23565b610788565b6040516101729190610f5d565b60405180910390f35b61018361079d565b6040516101909190610d8d565b60405180910390f35b6101b360048036038101906101ae9190610e95565b610829565b005b6101cf60048036038101906101ca9190610fd7565b61092b565b005b5f80546101dd90611088565b80601f016020809104026020016040519081016040528092919081815260200182805461020990611088565b80156102545780601f1061022b57610100808354040283529160200191610254565b820191905f5260205f20905b81548152906001019060200180831161023757829003601f168201915b505050505081565b6004602052805f5260405f205f915054906101000a900473ffffffffffffffffffffffffffffffffffffffff1681565b60025f8281526020019081526020015f205f9054906101000a900473ffffffffffffffffffffffffffffffffffffffff1673ffffffffffffffffffffffffffffffffffffffff163373ffffffffffffffffffffffffffffffffffffffff161461032a576040517f08c379a000000000000000000000000000000000000000000000000000000000815260040161032190611102565b60405180910390fd5b8160045f8381526020019081526020015f205f6101000a81548173ffffffffffffffffffffffffffffffffffffffff021916908373ffffffffffffffffffffffffffffffffffffffff1602179055505050565b8273ffffffffffffffffffffffffffffffffffffffff163373ffffffffffffffffffffffffffffffffffffffff161480610412575060045f8281526020019081526020015f205f9054906101000a900473ffffffffffffffffffffffffffffffffffffffff1673ffffffffffffffffffffffffffffffffffffffff163373ffffffffffffffffffffffffffffffffffffffff16145b610451576040517f08c379a00000000000000000000000000000000000000000000000000000000081526004016104489061116a565b60405180910390fd5b8273ffffffffffffffffffffffffffffffffffffffff1660025f8381526020019081526020015f205f9054906101000a900473ffffffffffffffffffffffffffffffffffffffff1673ffffffffffffffffffffffffffffffffffffffff16146104ef576040517f08c379a00000000000000000000000000000000000000000000000000000000081526004016104e690611102565b60405180910390fd5b8160025f8381526020019081526020015f205f6101000a81548173ffffffffffffffffffffffffffffffffffffffff021916908373ffffffffffffffffffffffffffffffffffffffff160217905550600160035f8573ffffffffffffffffffffffffffffffffffffffff1673ffffffffffffffffffffffffffffffffffffffff1681526020019081526020015f205f82825461058b91906111b5565b92505081905550600160035f8473ffffffffffffffffffffffffffffffffffffffff1673ffffffffffffffffffffffffffffffffffffffff1681526020019081526020015f205f8282546105df91906111e8565b92505081905550808273ffffffffffffffffffffffffffffffffffffffff168473ffffffffffffffffffffffffffffffffffffffff167fddf252ad1be2c89b69c2b068fc378daa952ba7f163c4a11628f55a4df523b3ef60405160405180910390a461064a82610d0c565b156107535763150b7a0260e01b7bffffffffffffffffffffffffffffffffffffffffffffffffffffffff19168273ffffffffffffffffffffffffffffffffffffffff1663150b7a023386856040518463ffffffff1660e01b81526004016106b39392919061124e565b6020604051808303815f875af11580156106cf573d5f5f3e3d5ffd5b505050506040513d601f19601f820116820180604052508101906106f391906112eb565b7bffffffffffffffffffffffffffffffffffffffffffffffffffffffff191614610752576040517f08c379a000000000000000000000000000000000000000000000000000000000815260040161074990611360565b60405180910390fd5b5b505050565b6002602052805f5260405f205f915054906101000a900473ffffffffffffffffffffffffffffffffffffffff1681565b6003602052805f5260405f205f915090505481565b600180546107aa90611088565b80601f01602080910402602001604051908101604052809291908181526020018280546107d690611088565b80156108215780601f106107f857610100808354040283529160200191610821565b820191905f5260205f20905b81548152906001019060200180831161080457829003601f168201915b505050505081565b8160025f8381526020019081526020015f205f6101000a81548173ffffffffffffffffffffffffffffffffffffffff021916908373ffffffffffffffffffffffffffffffffffffffff160217905550600160035f8473ffffffffffffffffffffffffffffffffffffffff1673ffffffffffffffffffffffffffffffffffffffff1681526020019081526020015f205f8282546108c591906111e8565b92505081905550808273ffffffffffffffffffffffffffffffffffffffff165f73ffffffffffffffffffffffffffffffffffffffff167fddf252ad1be2c89b69c2b068fc378daa952ba7f163c4a11628f55a4df523b3ef60405160405180910390a45050565b8473ffffffffffffffffffffffffffffffffffffffff163373ffffffffffffffffffffffffffffffffffffffff1614806109c0575060045f8481526020019081526020015f205f9054906101000a900473ffffffffffffffffffffffffffffffffffffffff1673ffffffffffffffffffffffffffffffffffffffff163373ffffffffffffffffffffffffffffffffffffffff16145b6109ff576040517f08c379a00000000000000000000000000000000000000000000000000000000081526004016109f69061116a565b60405180910390fd5b8473ffffffffffffffffffffffffffffffffffffffff1660025f8581526020019081526020015f205f9054906101000a900473ffffffffffffffffffffffffffffffffffffffff1673ffffffffffffffffffffffffffffffffffffffff1614610a9d576040517f08c379a0000000000000000000000000000000000000000000000000000000008152600401610a9490611102565b60405180910390fd5b8360025f8581526020019081526020015f205f6101000a81548173ffffffffffffffffffffffffffffffffffffffff021916908373ffffffffffffffffffffffffffffffffffffffff160217905550600160035f8773ffffffffffffffffffffffffffffffffffffffff1673ffffffffffffffffffffffffffffffffffffffff1681526020019081526020015f205f828254610b3991906111b5565b92505081905550600160035f8673ffffffffffffffffffffffffffffffffffffffff1673ffffffffffffffffffffffffffffffffffffffff1681526020019081526020015f205f828254610b8d91906111e8565b92505081905550828473ffffffffffffffffffffffffffffffffffffffff168673ffffffffffffffffffffffffffffffffffffffff167fddf252ad1be2c89b69c2b068fc378daa952ba7f163c4a11628f55a4df523b3ef60405160405180910390a4610bf884610d0c565b15610d055763150b7a0260e01b7bffffffffffffffffffffffffffffffffffffffffffffffffffffffff19168473ffffffffffffffffffffffffffffffffffffffff1663150b7a0233888787876040518663ffffffff1660e01b8152600401610c659594939291906113b8565b6020604051808303815f875af1158015610c81573d5f5f3e3d5ffd5b505050506040513d601f19601f82011682018060405250810190610ca591906112eb565b7bffffffffffffffffffffffffffffffffffffffffffffffffffffffff191614610d04576040517f08c379a0000000000000000000000000000000000000000000000000000000008152600401610cfb90611360565b60405180910390fd5b5b5050505050565b5f5f823b90505f8111915050919050565b5f81519050919050565b5f82825260208201905092915050565b8281835e5f83830152505050565b5f601f19601f8301169050919050565b5f610d5f82610d1d565b610d698185610d27565b9350610d79818560208601610d37565b610d8281610d45565b840191505092915050565b5f6020820190508181035f830152610da58184610d55565b905092915050565b5f5ffd5b5f5ffd5b5f819050919050565b610dc781610db5565b8114610dd1575f5ffd5b50565b5f81359050610de281610dbe565b92915050565b5f60208284031215610dfd57610dfc610dad565b5b5f610e0a84828501610dd4565b91505092915050565b5f73ffffffffffffffffffffffffffffffffffffffff82169050919050565b5f610e3c82610e13565b9050919050565b610e4c81610e32565b82525050565b5f602082019050610e655f830184610e43565b92915050565b610e7481610e32565b8114610e7e575f5ffd5b50565b5f81359050610e8f81610e6b565b92915050565b5f5f60408385031215610eab57610eaa610dad565b5b5f610eb885828601610e81565b9250506020610ec985828601610dd4565b9150509250929050565b5f5f5f60608486031215610eea57610ee9610dad565b5b5f610ef786828701610e81565b9350506020610f0886828701610e81565b9250506040610f1986828701610dd4565b9150509250925092565b5f60208284031215610f3857610f37610dad565b5b5f610f4584828501610e81565b91505092915050565b610f5781610db5565b82525050565b5f602082019050610f705f830184610f4e565b92915050565b5f5ffd5b5f5ffd5b5f5ffd5b5f5f83601f840112610f9757610f96610f76565b5b8235905067ffffffffffffffff811115610fb457610fb3610f7a565b5b602083019150836001820283011115610fd057610fcf610f7e565b5b9250929050565b5f5f5f5f5f60808688031215610ff057610fef610dad565b5b5f610ffd88828901610e81565b955050602061100e88828901610e81565b945050604061101f88828901610dd4565b935050606086013567ffffffffffffffff8111156110405761103f610db1565b5b61104c88828901610f82565b92509250509295509295909350565b7f4e487b71000000000000000000000000000000000000000000000000000000005f52602260045260245ffd5b5f600282049050600182168061109f57607f821691505b6020821081036110b2576110b161105b565b5b50919050565b7f6f776e00000000000000000000000000000000000000000000000000000000005f82015250565b5f6110ec600383610d27565b91506110f7826110b8565b602082019050919050565b5f6020820190508181035f830152611119816110e0565b9050919050565b7f61757468000000000000000000000000000000000000000000000000000000005f82015250565b5f611154600483610d27565b915061115f82611120565b602082019050919050565b5f6020820190508181035f83015261118181611148565b9050919050565b7f4e487b71000000000000000000000000000000000000000000000000000000005f52601160045260245ffd5b5f6111bf82610db5565b91506111ca83610db5565b92508282039050818111156111e2576111e1611188565b5b92915050565b5f6111f282610db5565b91506111fd83610db5565b925082820190508082111561121557611214611188565b5b92915050565b5f82825260208201905092915050565b50565b5f6112395f8361121b565b91506112448261122b565b5f82019050919050565b5f6080820190506112615f830186610e43565b61126e6020830185610e43565b61127b6040830184610f4e565b818103606083015261128c8161122e565b9050949350505050565b5f7fffffffff0000000000000000000000000000000000000000000000000000000082169050919050565b6112ca81611296565b81146112d4575f5ffd5b50565b5f815190506112e5816112c1565b92915050565b5f60208284031215611300576112ff610dad565b5b5f61130d848285016112d7565b91505092915050565b7f72637600000000000000000000000000000000000000000000000000000000005f82015250565b5f61134a600383610d27565b915061135582611316565b602082019050919050565b5f6020820190508181035f8301526113778161133e565b9050919050565b828183375f83830152505050565b5f611397838561121b565b93506113a483858461137e565b6113ad83610d45565b840190509392505050565b5f6080820190506113cb5f830188610e43565b6113d86020830187610e43565b6113e56040830186610f4e565b81810360608301526113f881848661138c565b9050969550505050505056fea26469706673582212205e33ec81258d596bb87e2528a24338a2f4bf0f7e342d19674db40611e69f869964736f6c634300081c0033000000000000000000000000000000000000000000000000000000000000004000000000000000000000000000000000000000000000000000000000000000800000000000000000000000000000000000000000000000000000000000000007546573744e4654000000000000000000000000000000000000000000000000000000000000000000000000000000000000000000000000000000000000000004544e465400000000000000000000000000000000000000000000000000000000",
        "nonce": "0x5b",
        "chainId": "0xaa36a7"
      },
      "additionalContracts": [],
      "isFixedGasLimit": false
    },
    {
      "hash": "0xba64f1f9c6af3ce514657b4263b7d9bd43691d7d1f0eb92a35d04e3eaefe8fcc",
      "transactionType": "CREATE",
      "contractName": "TestERC1155",
      "contractAddress": "0xc77bd586d9328467d4109a92137d7f7eee74739b",
      "function": null,
      "arguments": null,
      "transaction": {
        "from": "0x838abf92e994e088e641399e91ace43514038b90",
        "gas": "0x143c62",
        "value": "0x0",
        "input": "0x6080604052348015600e575f5ffd5b5061118d8061001c5f395ff3fe608060405234801561000f575f5ffd5b5060043610610049575f3560e01c8062fdd58e1461004d578063156e29f61461007d5780632eb2c2d614610099578063f242432a146100b5575b5f5ffd5b610067600480360381019061006291906109ba565b6100d1565b6040516100749190610a07565b60405180910390f35b61009760048036038101906100929190610a20565b6100f0565b005b6100b360048036038101906100ae9190610b26565b6101d4565b005b6100cf60048036038101906100ca9190610bfd565b6105ca565b005b5f602052815f5260405f20602052805f5260405f205f91509150505481565b805f5f8573ffffffffffffffffffffffffffffffffffffffff1673ffffffffffffffffffffffffffffffffffffffff1681526020019081526020015f205f8481526020019081526020015f205f82825461014a9190610cc0565b925050819055508273ffffffffffffffffffffffffffffffffffffffff165f73ffffffffffffffffffffffffffffffffffffffff163373ffffffffffffffffffffffffffffffffffffffff167fc3d58168c5ae7397731d063d5bbf3d657854427343f4c083240f7aacaa2d0f6285856040516101c7929190610cf3565b60405180910390a4505050565b8773ffffffffffffffffffffffffffffffffffffffff163373ffffffffffffffffffffffffffffffffffffffff1614610242576040517f08c379a000000000000000000000000000000000000000000000000000000000815260040161023990610d74565b60405180910390fd5b83839050868690501461028a576040517f08c379a000000000000000000000000000000000000000000000000000000000815260040161028190610ddc565b60405180910390fd5b5f5f90505b86869050811015610421575f8787838181106102ae576102ad610dfa565b5b9050602002013590505f8686848181106102cb576102ca610dfa565b5b905060200201359050805f5f8d73ffffffffffffffffffffffffffffffffffffffff1673ffffffffffffffffffffffffffffffffffffffff1681526020019081526020015f205f8481526020019081526020015f20541015610362576040517f08c379a000000000000000000000000000000000000000000000000000000000815260040161035990610e71565b60405180910390fd5b805f5f8d73ffffffffffffffffffffffffffffffffffffffff1673ffffffffffffffffffffffffffffffffffffffff1681526020019081526020015f205f8481526020019081526020015f205f8282540392505081905550805f5f8c73ffffffffffffffffffffffffffffffffffffffff1673ffffffffffffffffffffffffffffffffffffffff1681526020019081526020015f205f8481526020019081526020015f205f82825401925050819055505050808060010191505061028f565b508673ffffffffffffffffffffffffffffffffffffffff168873ffffffffffffffffffffffffffffffffffffffff163373ffffffffffffffffffffffffffffffffffffffff167f4a39dc06d4c0dbc64b70af90fd698a233a518aa5d07e595d983b8c0526c8f7fb8989898960405161049c9493929190610f07565b60405180910390a46104ad87610914565b156105c05763bc197c8160e01b7bffffffffffffffffffffffffffffffffffffffffffffffffffffffff19168773ffffffffffffffffffffffffffffffffffffffff1663bc197c81338b8a8a8a8a8a8a6040518963ffffffff1660e01b8152600401610520989796959493929190610fa9565b6020604051808303815f875af115801561053c573d5f5f3e3d5ffd5b505050506040513d601f19601f82011682018060405250810190610560919061106a565b7bffffffffffffffffffffffffffffffffffffffffffffffffffffffff1916146105bf576040517f08c379a00000000000000000000000000000000000000000000000000000000081526004016105b6906110df565b60405180910390fd5b5b5050505050505050565b8573ffffffffffffffffffffffffffffffffffffffff163373ffffffffffffffffffffffffffffffffffffffff1614610638576040517f08c379a000000000000000000000000000000000000000000000000000000000815260040161062f90610d74565b60405180910390fd5b825f5f8873ffffffffffffffffffffffffffffffffffffffff1673ffffffffffffffffffffffffffffffffffffffff1681526020019081526020015f205f8681526020019081526020015f205410156106c6576040517f08c379a00000000000000000000000000000000000000000000000000000000081526004016106bd90610e71565b60405180910390fd5b825f5f8873ffffffffffffffffffffffffffffffffffffffff1673ffffffffffffffffffffffffffffffffffffffff1681526020019081526020015f205f8681526020019081526020015f205f8282540392505081905550825f5f8773ffffffffffffffffffffffffffffffffffffffff1673ffffffffffffffffffffffffffffffffffffffff1681526020019081526020015f205f8681526020019081526020015f205f82825401925050819055508473ffffffffffffffffffffffffffffffffffffffff168673ffffffffffffffffffffffffffffffffffffffff163373ffffffffffffffffffffffffffffffffffffffff167fc3d58168c5ae7397731d063d5bbf3d657854427343f4c083240f7aacaa2d0f6287876040516107ec929190610cf3565b60405180910390a46107fd85610914565b1561090c5763f23a6e6160e01b7bffffffffffffffffffffffffffffffffffffffffffffffffffffffff19168573ffffffffffffffffffffffffffffffffffffffff1663f23a6e613389888888886040518763ffffffff1660e01b815260040161086c969594939291906110fd565b6020604051808303815f875af1158015610888573d5f5f3e3d5ffd5b505050506040513d601f19601f820116820180604052508101906108ac919061106a565b7bffffffffffffffffffffffffffffffffffffffffffffffffffffffff19161461090b576040517f08c379a0000000000000000000000000000000000000000000000000000000008152600401610902906110df565b60405180910390fd5b5b505050505050565b5f5f823b90505f8111915050919050565b5f5ffd5b5f5ffd5b5f73ffffffffffffffffffffffffffffffffffffffff82169050919050565b5f6109568261092d565b9050919050565b6109668161094c565b8114610970575f5ffd5b50565b5f813590506109818161095d565b92915050565b5f819050919050565b61099981610987565b81146109a3575f5ffd5b50565b5f813590506109b481610990565b92915050565b5f5f604083850312156109d0576109cf610925565b5b5f6109dd85828601610973565b92505060206109ee858286016109a6565b9150509250929050565b610a0181610987565b82525050565b5f602082019050610a1a5f8301846109f8565b92915050565b5f5f5f60608486031215610a3757610a36610925565b5b5f610a4486828701610973565b9350506020610a55868287016109a6565b9250506040610a66868287016109a6565b9150509250925092565b5f5ffd5b5f5ffd5b5f5ffd5b5f5f83601f840112610a9157610a90610a70565b5b8235905067ffffffffffffffff811115610aae57610aad610a74565b5b602083019150836020820283011115610aca57610ac9610a78565b5b9250929050565b5f5f83601f840112610ae657610ae5610a70565b5b8235905067ffffffffffffffff811115610b0357610b02610a74565b5b602083019150836001820283011115610b1f57610b1e610a78565b5b9250929050565b5f5f5f5f5f5f5f5f60a0898b031215610b4257610b41610925565b5b5f610b4f8b828c01610973565b9850506020610b608b828c01610973565b975050604089013567ffffffffffffffff811115610b8157610b80610929565b5b610b8d8b828c01610a7c565b9650965050606089013567ffffffffffffffff811115610bb057610baf610929565b5b610bbc8b828c01610a7c565b9450945050608089013567ffffffffffffffff811115610bdf57610bde610929565b5b610beb8b828c01610ad1565b92509250509295985092959890939650565b5f5f5f5f5f5f60a08789031215610c1757610c16610925565b5b5f610c2489828a01610973565b9650506020610c3589828a01610973565b9550506040610c4689828a016109a6565b9450506060610c5789828a016109a6565b935050608087013567ffffffffffffffff811115610c7857610c77610929565b5b610c8489828a01610ad1565b92509250509295509295509295565b7f4e487b71000000000000000000000000000000000000000000000000000000005f52601160045260245ffd5b5f610cca82610987565b9150610cd583610987565b9250828201905080821115610ced57610cec610c93565b5b92915050565b5f604082019050610d065f8301856109f8565b610d1360208301846109f8565b9392505050565b5f82825260208201905092915050565b7f61757468000000000000000000000000000000000000000000000000000000005f82015250565b5f610d5e600483610d1a565b9150610d6982610d2a565b602082019050919050565b5f6020820190508181035f830152610d8b81610d52565b9050919050565b7f6c656e00000000000000000000000000000000000000000000000000000000005f82015250565b5f610dc6600383610d1a565b9150610dd182610d92565b602082019050919050565b5f6020820190508181035f830152610df381610dba565b9050919050565b7f4e487b71000000000000000000000000000000000000000000000000000000005f52603260045260245ffd5b7f62616c00000000000000000000000000000000000000000000000000000000005f82015250565b5f610e5b600383610d1a565b9150610e6682610e27565b602082019050919050565b5f6020820190508181035f830152610e8881610e4f565b9050919050565b5f82825260208201905092915050565b5f5ffd5b82818337505050565b5f610eb78385610e8f565b93507f07ffffffffffffffffffffffffffffffffffffffffffffffffffffffffffffff831115610eea57610ee9610e9f565b5b602083029250610efb838584610ea3565b82840190509392505050565b5f6040820190508181035f830152610f20818688610eac565b90508181036020830152610f35818486610eac565b905095945050505050565b610f498161094c565b82525050565b5f82825260208201905092915050565b828183375f83830152505050565b5f601f19601f8301169050919050565b5f610f888385610f4f565b9350610f95838584610f5f565b610f9e83610f6d565b840190509392505050565b5f60a082019050610fbc5f83018b610f40565b610fc9602083018a610f40565b8181036040830152610fdc81888a610eac565b90508181036060830152610ff1818688610eac565b90508181036080830152611006818486610f7d565b90509998505050505050505050565b5f7fffffffff0000000000000000000000000000000000000000000000000000000082169050919050565b61104981611015565b8114611053575f5ffd5b50565b5f8151905061106481611040565b92915050565b5f6020828403121561107f5761107e610925565b5b5f61108c84828501611056565b91505092915050565b7f72637600000000000000000000000000000000000000000000000000000000005f82015250565b5f6110c9600383610d1a565b91506110d482611095565b602082019050919050565b5f6020820190508181035f8301526110f6816110bd565b9050919050565b5f60a0820190506111105f830189610f40565b61111d6020830188610f40565b61112a60408301876109f8565b61113760608301866109f8565b818103608083015261114a818486610f7d565b905097965050505050505056fea2646970667358221220bd3df86be8c61b08d184d964065159689c5cee38592be16e9bc85c223d8d676864736f6c634300081c0033",
        "nonce": "0x5c",
        "chainId": "0xaa36a7"
      },
      "additionalContracts": [],
      "isFixedGasLimit": false
    },
    {
      "hash": "0x4130fa2d1340bcc5cd4fae3020bf8a85bd94def7fa75ca1088f5ea5d8c665e60",
      "transactionType": "CALL",
      "contractName": "TestERC20",
      "contractAddress": "0xc8ae088da539f0df6aec3b3c315f5010966d73f6",
      "function": "mint(address,uint256)",
      "arguments": [
        "0x615Ee3Feb9b6E2756f8B50CB9f5427f0c9F901C6",
        "1000000000000000000000"
      ],
      "transaction": {
        "from": "0x838abf92e994e088e641399e91ace43514038b90",
        "to": "0xc8ae088da539f0df6aec3b3c315f5010966d73f6",
        "gas": "0x173e6",
        "value": "0x0",
        "input": "0x40c10f19000000000000000000000000615ee3feb9b6e2756f8b50cb9f5427f0c9f901c600000000000000000000000000000000000000000000003635c9adc5dea00000",
        "nonce": "0x5d",
        "chainId": "0xaa36a7"
      },
      "additionalContracts": [],
      "isFixedGasLimit": false
    },
    {
      "hash": "0xbbf84288395de592449807c4732758e27bc4682c6e79efacc15952a49255d697",
      "transactionType": "CALL",
      "contractName": "TestERC721",
      "contractAddress": "0xdacab339b2162a23a8e795d992b81a34dc54a1f2",
      "function": "safeMint(address,uint256)",
      "arguments": [
        "0x615Ee3Feb9b6E2756f8B50CB9f5427f0c9F901C6",
        "1"
      ],
      "transaction": {
        "from": "0x838abf92e994e088e641399e91ace43514038b90",
        "to": "0xdacab339b2162a23a8e795d992b81a34dc54a1f2",
        "gas": "0x17351",
        "value": "0x0",
        "input": "0xa1448194000000000000000000000000615ee3feb9b6e2756f8b50cb9f5427f0c9f901c60000000000000000000000000000000000000000000000000000000000000001",
        "nonce": "0x5e",
        "chainId": "0xaa36a7"
      },
      "additionalContracts": [],
      "isFixedGasLimit": false
    },
    {
      "hash": "0xb32295a14cdda73691a769b098378ee54a926c4c6270a68ad1c8bd03af7e3544",
      "transactionType": "CALL",
      "contractName": "TestERC721",
      "contractAddress": "0xdacab339b2162a23a8e795d992b81a34dc54a1f2",
      "function": "safeMint(address,uint256)",
      "arguments": [
        "0x615Ee3Feb9b6E2756f8B50CB9f5427f0c9F901C6",
        "2"
      ],
      "transaction": {
        "from": "0x838abf92e994e088e641399e91ace43514038b90",
        "to": "0xdacab339b2162a23a8e795d992b81a34dc54a1f2",
        "gas": "0x1170d",
        "value": "0x0",
        "input": "0xa1448194000000000000000000000000615ee3feb9b6e2756f8b50cb9f5427f0c9f901c60000000000000000000000000000000000000000000000000000000000000002",
        "nonce": "0x5f",
        "chainId": "0xaa36a7"
      },
      "additionalContracts": [],
      "isFixedGasLimit": false
    },
    {
      "hash": "0x5a35a4720f0bd85dae0bd6bf7b3be1b18b69bdb37c9b00cba39c20749d312ef0",
      "transactionType": "CALL",
      "contractName": "TestERC1155",
      "contractAddress": "0xc77bd586d9328467d4109a92137d7f7eee74739b",
      "function": "mint(address,uint256,uint256)",
      "arguments": [
        "0x615Ee3Feb9b6E2756f8B50CB9f5427f0c9F901C6",
        "1",
        "100"
      ],
      "transaction": {
        "from": "0x838abf92e994e088e641399e91ace43514038b90",
        "to": "0xc77bd586d9328467d4109a92137d7f7eee74739b",
        "gas": "0x10131",
        "value": "0x0",
        "input": "0x156e29f6000000000000000000000000615ee3feb9b6e2756f8b50cb9f5427f0c9f901c600000000000000000000000000000000000000000000000000000000000000010000000000000000000000000000000000000000000000000000000000000064",
        "nonce": "0x60",
        "chainId": "0xaa36a7"
      },
      "additionalContracts": [],
      "isFixedGasLimit": false
    },
    {
      "hash": "0x4dff106484a7ac63a871cc826993a5603b9a211cc8b5da3c356447f39891056f",
      "transactionType": "CALL",
      "contractName": null,
      "contractAddress": "0x615ee3feb9b6e2756f8b50cb9f5427f0c9f901c6",
      "function": "addERC20Reward(address,uint256,uint256,uint256)",
      "arguments": [
        "0xc8AE088dA539f0DF6aeC3B3C315F5010966d73F6",
        "10000000000000000000",
        "5",
        "40"
      ],
      "transaction": {
        "from": "0x838abf92e994e088e641399e91ace43514038b90",
        "to": "0x615ee3feb9b6e2756f8b50cb9f5427f0c9f901c6",
        "gas": "0x412f5",
        "value": "0x0",
        "input": "0xe34806ec000000000000000000000000c8ae088da539f0df6aec3b3c315f5010966d73f60000000000000000000000000000000000000000000000008ac7230489e8000000000000000000000000000000000000000000000000000000000000000000050000000000000000000000000000000000000000000000000000000000000028",
        "nonce": "0x61",
        "chainId": "0xaa36a7"
      },
      "additionalContracts": [],
      "isFixedGasLimit": false
    },
    {
      "hash": "0x85f91069f97219f9cbc6b5a0b88de830741e13048676eb85efd95d9041ed259e",
      "transactionType": "CALL",
      "contractName": null,
      "contractAddress": "0x615ee3feb9b6e2756f8b50cb9f5427f0c9f901c6",
      "function": "addERC721Reward(address,uint256,uint256)",
      "arguments": [
        "0xdaCAB339B2162a23a8e795d992b81A34Dc54A1f2",
        "1",
        "30"
      ],
      "transaction": {
        "from": "0x838abf92e994e088e641399e91ace43514038b90",
        "to": "0x615ee3feb9b6e2756f8b50cb9f5427f0c9f901c6",
        "gas": "0x357f6",
        "value": "0x0",
        "input": "0xc2391e6f000000000000000000000000dacab339b2162a23a8e795d992b81a34dc54a1f20000000000000000000000000000000000000000000000000000000000000001000000000000000000000000000000000000000000000000000000000000001e",
        "nonce": "0x62",
        "chainId": "0xaa36a7"
      },
      "additionalContracts": [],
      "isFixedGasLimit": false
    },
    {
      "hash": "0x5b1e5c1ef9508d2b8068a111409889d4dd4228f59c968acbda1d4f181482ad5d",
      "transactionType": "CALL",
      "contractName": null,
      "contractAddress": "0x615ee3feb9b6e2756f8b50cb9f5427f0c9f901c6",
      "function": "addERC721Reward(address,uint256,uint256)",
      "arguments": [
        "0xdaCAB339B2162a23a8e795d992b81A34Dc54A1f2",
        "2",
        "20"
      ],
      "transaction": {
        "from": "0x838abf92e994e088e641399e91ace43514038b90",
        "to": "0x615ee3feb9b6e2756f8b50cb9f5427f0c9f901c6",
        "gas": "0x357f6",
        "value": "0x0",
        "input": "0xc2391e6f000000000000000000000000dacab339b2162a23a8e795d992b81a34dc54a1f200000000000000000000000000000000000000000000000000000000000000020000000000000000000000000000000000000000000000000000000000000014",
        "nonce": "0x63",
        "chainId": "0xaa36a7"
      },
      "additionalContracts": [],
      "isFixedGasLimit": false
    },
    {
      "hash": "0x9a315dfb5721bdbaa1aa1a27f342ec9dec3354052e2015aa65528e1ed37ab483",
      "transactionType": "CALL",
      "contractName": null,
      "contractAddress": "0x615ee3feb9b6e2756f8b50cb9f5427f0c9f901c6",
      "function": "addERC1155Reward(address,uint256,uint256,uint256,uint256)",
      "arguments": [
        "0xC77bD586D9328467d4109a92137D7f7EEe74739B",
        "1",
        "5",
        "3",
        "10"
      ],
      "transaction": {
        "from": "0x838abf92e994e088e641399e91ace43514038b90",
        "to": "0x615ee3feb9b6e2756f8b50cb9f5427f0c9f901c6",
        "gas": "0x3c826",
        "value": "0x0",
        "input": "0xefe7eecb000000000000000000000000c77bd586d9328467d4109a92137d7f7eee74739b000000000000000000000000000000000000000000000000000000000000000100000000000000000000000000000000000000000000000000000000000000050000000000000000000000000000000000000000000000000000000000000003000000000000000000000000000000000000000000000000000000000000000a",
        "nonce": "0x64",
        "chainId": "0xaa36a7"
      },
      "additionalContracts": [],
      "isFixedGasLimit": false
    },
    {
      "hash": "0x10096251b1f89796966a330840dcb18cdafc42298ccfee1514fb2cd9907b0b61",
      "transactionType": "CALL",
      "contractName": null,
      "contractAddress": "0x615ee3feb9b6e2756f8b50cb9f5427f0c9f901c6",
      "function": "openBox()",
      "arguments": [],
      "transaction": {
        "from": "0x838abf92e994e088e641399e91ace43514038b90",
        "to": "0x615ee3feb9b6e2756f8b50cb9f5427f0c9f901c6",
        "gas": "0x2c111",
        "value": "0x2386f26fc10000",
        "input": "0xc2e952c7",
        "nonce": "0x65",
        "chainId": "0xaa36a7"
      },
      "additionalContracts": [],
      "isFixedGasLimit": false
    }
  ],
  "receipts": [
    {
      "status": "0x1",
      "cumulativeGasUsed": "0x4f04f0",
      "logs": [],
      "logsBloom": "0x00000000000000000000000000000000000000000000000000000000000000000000000000000000000000000000000000000000000000000000000000000000000000000000000000000000000000000000000000000000000000000000000000000000000000000000000000000000000000000000000000000000000000000000000000000000000000000000000000000000000000000000000000000000000000000000000000000000000000000000000000000000000000000000000000000000000000000000000000000000000000000000000000000000000000000000000000000000000000000000000000000000000000000000000000000000",
      "type": "0x2",
      "transactionHash": "0x77abe7cebad75d4c610192ab8a4e630a98687474ff84e4e4757d2e7289373fc8",
      "transactionIndex": "0x33",
      "blockHash": "0xa2fec99bf8047ea59f8b0f03e946bf3f91517d028e37cbeedfa6ab3c055ec8b1",
      "blockNumber": "0x891af5",
      "gasUsed": "0x95fbf",
      "effectiveGasPrice": "0x1a4cd9bc",
      "from": "0x838abf92e994e088e641399e91ace43514038b90",
      "to": null,
      "contractAddress": "0xc8ae088da539f0df6aec3b3c315f5010966d73f6"
    },
    {
      "status": "0x1",
      "cumulativeGasUsed": "0x61dfb3",
      "logs": [],
      "logsBloom": "0x00000000000000000000000000000000000000000000000000000000000000000000000000000000000000000000000000000000000000000000000000000000000000000000000000000000000000000000000000000000000000000000000000000000000000000000000000000000000000000000000000000000000000000000000000000000000000000000000000000000000000000000000000000000000000000000000000000000000000000000000000000000000000000000000000000000000000000000000000000000000000000000000000000000000000000000000000000000000000000000000000000000000000000000000000000000",
      "type": "0x2",
      "transactionHash": "0x0a54ac2a81f85d17ef1b0fa59309fc9ed4f297d5e2d24090a97232920a2a5664",
      "transactionIndex": "0x34",
      "blockHash": "0xa2fec99bf8047ea59f8b0f03e946bf3f91517d028e37cbeedfa6ab3c055ec8b1",
      "blockNumber": "0x891af5",
      "gasUsed": "0x12dac3",
      "effectiveGasPrice": "0x1a4cd9bc",
      "from": "0x838abf92e994e088e641399e91ace43514038b90",
      "to": null,
      "contractAddress": "0xdacab339b2162a23a8e795d992b81a34dc54a1f2"
    },
    {
      "status": "0x1",
      "cumulativeGasUsed": "0x71709c",
      "logs": [],
      "logsBloom": "0x00000000000000000000000000000000000000000000000000000000000000000000000000000000000000000000000000000000000000000000000000000000000000000000000000000000000000000000000000000000000000000000000000000000000000000000000000000000000000000000000000000000000000000000000000000000000000000000000000000000000000000000000000000000000000000000000000000000000000000000000000000000000000000000000000000000000000000000000000000000000000000000000000000000000000000000000000000000000000000000000000000000000000000000000000000000",
      "type": "0x2",
      "transactionHash": "0xba64f1f9c6af3ce514657b4263b7d9bd43691d7d1f0eb92a35d04e3eaefe8fcc",
      "transactionIndex": "0x35",
      "blockHash": "0xa2fec99bf8047ea59f8b0f03e946bf3f91517d028e37cbeedfa6ab3c055ec8b1",
      "blockNumber": "0x891af5",
      "gasUsed": "0xf90e9",
      "effectiveGasPrice": "0x1a4cd9bc",
      "from": "0x838abf92e994e088e641399e91ace43514038b90",
      "to": null,
      "contractAddress": "0xc77bd586d9328467d4109a92137d7f7eee74739b"
    },
    {
      "status": "0x1",
      "cumulativeGasUsed": "0x727ddc",
      "logs": [
        {
          "address": "0xc8ae088da539f0df6aec3b3c315f5010966d73f6",
          "topics": [
            "0xddf252ad1be2c89b69c2b068fc378daa952ba7f163c4a11628f55a4df523b3ef",
            "0x0000000000000000000000000000000000000000000000000000000000000000",
            "0x000000000000000000000000615ee3feb9b6e2756f8b50cb9f5427f0c9f901c6"
          ],
          "data": "0x00000000000000000000000000000000000000000000003635c9adc5dea00000",
          "blockHash": "0xa2fec99bf8047ea59f8b0f03e946bf3f91517d028e37cbeedfa6ab3c055ec8b1",
          "blockNumber": "0x891af5",
          "blockTimestamp": "0x689e5e94",
          "transactionHash": "0x4130fa2d1340bcc5cd4fae3020bf8a85bd94def7fa75ca1088f5ea5d8c665e60",
          "transactionIndex": "0x36",
          "logIndex": "0x3e",
          "removed": false
        }
      ],
      "logsBloom": "0x00000000000000000000000000000000000000000000000000000000000000000000000000000000000000000000000000000000000000000000000000000000000000000000000000000009000000000000000000000000000000000000000000000000020004000000000000000800000000000000000000000010000000000000000000000000000000000000000000000000000000000000000000000000000002000000000000000000000000000000000000000000000000000000000200000002000000000000000000000000000000000000000200000000000020000000000000000000000000000000000000000000008000000000000000000000",
      "type": "0x2",
      "transactionHash": "0x4130fa2d1340bcc5cd4fae3020bf8a85bd94def7fa75ca1088f5ea5d8c665e60",
      "transactionIndex": "0x36",
      "blockHash": "0xa2fec99bf8047ea59f8b0f03e946bf3f91517d028e37cbeedfa6ab3c055ec8b1",
      "blockNumber": "0x891af5",
      "gasUsed": "0x10d40",
      "effectiveGasPrice": "0x1a4cd9bc",
      "from": "0x838abf92e994e088e641399e91ace43514038b90",
      "to": "0xc8ae088da539f0df6aec3b3c315f5010966d73f6",
      "contractAddress": null
    },
    {
      "status": "0x1",
      "cumulativeGasUsed": "0x738ab0",
      "logs": [
        {
          "address": "0xdacab339b2162a23a8e795d992b81a34dc54a1f2",
          "topics": [
            "0xddf252ad1be2c89b69c2b068fc378daa952ba7f163c4a11628f55a4df523b3ef",
            "0x0000000000000000000000000000000000000000000000000000000000000000",
            "0x000000000000000000000000615ee3feb9b6e2756f8b50cb9f5427f0c9f901c6",
            "0x0000000000000000000000000000000000000000000000000000000000000001"
          ],
          "data": "0x",
          "blockHash": "0xa2fec99bf8047ea59f8b0f03e946bf3f91517d028e37cbeedfa6ab3c055ec8b1",
          "blockNumber": "0x891af5",
          "blockTimestamp": "0x689e5e94",
          "transactionHash": "0xbbf84288395de592449807c4732758e27bc4682c6e79efacc15952a49255d697",
          "transactionIndex": "0x37",
          "logIndex": "0x3f",
          "removed": false
        }
      ],
      "logsBloom": "0x08000000000000000000000000000000000000000000000000000000000000000000000000000000000000000000000000000000000000000000200000040000000008000000000000000008000000000000000000040000000000000000000000000000020004000000000000000800000000000000000000000010000000000000000000000000000000000000000000000000000000000000000000000000000000000000000000000000000000000000000000000000000000000000000200000002000000000000000000000000000000000000000000000000000060000000000000000000000000000000000000000000008000000000000000000000",
      "type": "0x2",
      "transactionHash": "0xbbf84288395de592449807c4732758e27bc4682c6e79efacc15952a49255d697",
      "transactionIndex": "0x37",
      "blockHash": "0xa2fec99bf8047ea59f8b0f03e946bf3f91517d028e37cbeedfa6ab3c055ec8b1",
      "blockNumber": "0x891af5",
      "gasUsed": "0x10cd4",
      "effectiveGasPrice": "0x1a4cd9bc",
      "from": "0x838abf92e994e088e641399e91ace43514038b90",
      "to": "0xdacab339b2162a23a8e795d992b81a34dc54a1f2",
      "contractAddress": null
    },
    {
      "status": "0x1",
      "cumulativeGasUsed": "0x7454b8",
      "logs": [
        {
          "address": "0xdacab339b2162a23a8e795d992b81a34dc54a1f2",
          "topics": [
            "0xddf252ad1be2c89b69c2b068fc378daa952ba7f163c4a11628f55a4df523b3ef",
            "0x0000000000000000000000000000000000000000000000000000000000000000",
            "0x000000000000000000000000615ee3feb9b6e2756f8b50cb9f5427f0c9f901c6",
            "0x0000000000000000000000000000000000000000000000000000000000000002"
          ],
          "data": "0x",
          "blockHash": "0xa2fec99bf8047ea59f8b0f03e946bf3f91517d028e37cbeedfa6ab3c055ec8b1",
          "blockNumber": "0x891af5",
          "blockTimestamp": "0x689e5e94",
          "transactionHash": "0xb32295a14cdda73691a769b098378ee54a926c4c6270a68ad1c8bd03af7e3544",
          "transactionIndex": "0x38",
          "logIndex": "0x40",
          "removed": false
        }
      ],
      "logsBloom": "0x0c000000000000000000000000000000000000000000000000000000000000000000000000000000000000000000000000000000000000000000200000000000000008000000000000000008000000000000000000000000000000000000000000000000020004000000000000000800000000000000000000000010000000000000000000000000000000000000000000000000000000000000000000000000000000000000000000000100000000000000000000000000000000000000000200000002000000000000000000000000000000000000000000000000000020000000000000000000000000000000000000000000008000000000000000000000",
      "type": "0x2",
      "transactionHash": "0xb32295a14cdda73691a769b098378ee54a926c4c6270a68ad1c8bd03af7e3544",
      "transactionIndex": "0x38",
      "blockHash": "0xa2fec99bf8047ea59f8b0f03e946bf3f91517d028e37cbeedfa6ab3c055ec8b1",
      "blockNumber": "0x891af5",
      "gasUsed": "0xca08",
      "effectiveGasPrice": "0x1a4cd9bc",
      "from": "0x838abf92e994e088e641399e91ace43514038b90",
      "to": "0xdacab339b2162a23a8e795d992b81a34dc54a1f2",
      "contractAddress": null
    },
    {
      "status": "0x1",
      "cumulativeGasUsed": "0x750eec",
      "logs": [
        {
          "address": "0xc77bd586d9328467d4109a92137d7f7eee74739b",
          "topics": [
            "0xc3d58168c5ae7397731d063d5bbf3d657854427343f4c083240f7aacaa2d0f62",
            "0x000000000000000000000000838abf92e994e088e641399e91ace43514038b90",
            "0x0000000000000000000000000000000000000000000000000000000000000000",
            "0x000000000000000000000000615ee3feb9b6e2756f8b50cb9f5427f0c9f901c6"
          ],
          "data": "0x00000000000000000000000000000000000000000000000000000000000000010000000000000000000000000000000000000000000000000000000000000064",
          "blockHash": "0xa2fec99bf8047ea59f8b0f03e946bf3f91517d028e37cbeedfa6ab3c055ec8b1",
          "blockNumber": "0x891af5",
          "blockTimestamp": "0x689e5e94",
          "transactionHash": "0x5a35a4720f0bd85dae0bd6bf7b3be1b18b69bdb37c9b00cba39c20749d312ef0",
          "transactionIndex": "0x39",
          "logIndex": "0x41",
          "removed": false
        }
      ],
      "logsBloom": "0x80000000000000000000000000000000000000000000000000000000000000000000000000000000000000000000000000000000000000000000000000002000000000000000000000000000000000000000000000000000000000000000000000010002020004000000000000000800000000000000000000000000000000000000000000000000000000000000000000000000000000000000000000000000000000000000000000000000000000000000000000000000000000000000000200000000000000000000000000000000000000000008000000000000000020000000000000000000040000000000000000000000008080000000080001000000",
      "type": "0x2",
      "transactionHash": "0x5a35a4720f0bd85dae0bd6bf7b3be1b18b69bdb37c9b00cba39c20749d312ef0",
      "transactionIndex": "0x39",
      "blockHash": "0xa2fec99bf8047ea59f8b0f03e946bf3f91517d028e37cbeedfa6ab3c055ec8b1",
      "blockNumber": "0x891af5",
      "gasUsed": "0xba34",
      "effectiveGasPrice": "0x1a4cd9bc",
      "from": "0x838abf92e994e088e641399e91ace43514038b90",
      "to": "0xc77bd586d9328467d4109a92137d7f7eee74739b",
      "contractAddress": null
    },
    {
      "status": "0x1",
      "cumulativeGasUsed": "0x780202",
      "logs": [
        {
          "address": "0x615ee3feb9b6e2756f8b50cb9f5427f0c9f901c6",
          "topics": [
            "0xe3d694c5a806e0218c9b1ba37becdabcfba6cf2245b7cd524dcad9ce82f01dbf",
            "0x0000000000000000000000000000000000000000000000000000000000000000",
            "0x000000000000000000000000c8ae088da539f0df6aec3b3c315f5010966d73f6"
          ],
          "data": "0x00000000000000000000000000000000000000000000000000000000000000000000000000000000000000000000000000000000000000008ac7230489e80000000000000000000000000000000000000000000000000000000000000000000000000000000000000000000000000000000000000000000000000000000000050000000000000000000000000000000000000000000000000000000000000028",
          "blockHash": "0xa2fec99bf8047ea59f8b0f03e946bf3f91517d028e37cbeedfa6ab3c055ec8b1",
          "blockNumber": "0x891af5",
          "blockTimestamp": "0x689e5e94",
          "transactionHash": "0x4dff106484a7ac63a871cc826993a5603b9a211cc8b5da3c356447f39891056f",
          "transactionIndex": "0x3a",
          "logIndex": "0x42",
          "removed": false
        }
      ],
      "logsBloom": "0x00000000000000000000000000000000000000000000000000000000000000000080000000000000000000000000000000000008000000000000000000000000000000000000000000000400000000000000000001000000000000000000000000000000420010000000000000000800000000000000000000000000000000000000000000000000000000000020000000000000000000000000000000000000000000000000000010000000000000000000000000000000000000000000000000000000000000000000000000000000000000000000000000000000000020010000000000000000000000000000000000000000000000000000000000000000",
      "type": "0x2",
      "transactionHash": "0x4dff106484a7ac63a871cc826993a5603b9a211cc8b5da3c356447f39891056f",
      "transactionIndex": "0x3a",
      "blockHash": "0xa2fec99bf8047ea59f8b0f03e946bf3f91517d028e37cbeedfa6ab3c055ec8b1",
      "blockNumber": "0x891af5",
      "gasUsed": "0x2f316",
      "effectiveGasPrice": "0x1a4cd9bc",
      "from": "0x838abf92e994e088e641399e91ace43514038b90",
      "to": "0x615ee3feb9b6e2756f8b50cb9f5427f0c9f901c6",
      "contractAddress": null
    },
    {
      "status": "0x1",
      "cumulativeGasUsed": "0x7a6db6",
      "logs": [
        {
          "address": "0x615ee3feb9b6e2756f8b50cb9f5427f0c9f901c6",
          "topics": [
            "0xe3d694c5a806e0218c9b1ba37becdabcfba6cf2245b7cd524dcad9ce82f01dbf",
            "0x0000000000000000000000000000000000000000000000000000000000000001",
            "0x000000000000000000000000dacab339b2162a23a8e795d992b81a34dc54a1f2"
          ],
          "data": "0x0000000000000000000000000000000000000000000000000000000000000001000000000000000000000000000000000000000000000000000000000000000100000000000000000000000000000000000000000000000000000000000000000000000000000000000000000000000000000000000000000000000000000001000000000000000000000000000000000000000000000000000000000000001e",
          "blockHash": "0xa2fec99bf8047ea59f8b0f03e946bf3f91517d028e37cbeedfa6ab3c055ec8b1",
          "blockNumber": "0x891af5",
          "blockTimestamp": "0x689e5e94",
          "transactionHash": "0x85f91069f97219f9cbc6b5a0b88de830741e13048676eb85efd95d9041ed259e",
          "transactionIndex": "0x3b",
          "logIndex": "0x43",
          "removed": false
        }
      ],
      "logsBloom": "0x00000000000000000000000000000000000000000000000002000000000000000080000000000000000000000000000000000008000000000000000000040000000000000000000000000000000000000000000001040000000000000000000000000000000000000000000000000000000000000000000000000000000000000000000000000000000000000020000000000000000000000000000000010000000000000000000010000000000000000000000000000000000000000000000000000000000000000000000000000000000000000000000000000000000040010000000000000000000000000000000000000000000000000000000000000000",
      "type": "0x2",
      "transactionHash": "0x85f91069f97219f9cbc6b5a0b88de830741e13048676eb85efd95d9041ed259e",
      "transactionIndex": "0x3b",
      "blockHash": "0xa2fec99bf8047ea59f8b0f03e946bf3f91517d028e37cbeedfa6ab3c055ec8b1",
      "blockNumber": "0x891af5",
      "gasUsed": "0x26bb4",
      "effectiveGasPrice": "0x1a4cd9bc",
      "from": "0x838abf92e994e088e641399e91ace43514038b90",
      "to": "0x615ee3feb9b6e2756f8b50cb9f5427f0c9f901c6",
      "contractAddress": null
    },
    {
      "status": "0x1",
      "cumulativeGasUsed": "0x7cd96a",
      "logs": [
        {
          "address": "0x615ee3feb9b6e2756f8b50cb9f5427f0c9f901c6",
          "topics": [
            "0xe3d694c5a806e0218c9b1ba37becdabcfba6cf2245b7cd524dcad9ce82f01dbf",
            "0x0000000000000000000000000000000000000000000000000000000000000002",
            "0x000000000000000000000000dacab339b2162a23a8e795d992b81a34dc54a1f2"
          ],
          "data": "0x00000000000000000000000000000000000000000000000000000000000000010000000000000000000000000000000000000000000000000000000000000002000000000000000000000000000000000000000000000000000000000000000000000000000000000000000000000000000000000000000000000000000000010000000000000000000000000000000000000000000000000000000000000014",
          "blockHash": "0xa2fec99bf8047ea59f8b0f03e946bf3f91517d028e37cbeedfa6ab3c055ec8b1",
          "blockNumber": "0x891af5",
          "blockTimestamp": "0x689e5e94",
          "transactionHash": "0x5b1e5c1ef9508d2b8068a111409889d4dd4228f59c968acbda1d4f181482ad5d",
          "transactionIndex": "0x3c",
          "logIndex": "0x44",
          "removed": false
        }
      ],
      "logsBloom": "0x04000000000000000000000000000000000000000000000002000000000000000080000000000000000000000000000000000008000000000000000000000000000000000000000000000000000000000000000001000000000000000000000000000000000000000000000000000000000000000000000000000000000000000000000000000000000000000020000000000000000000000000000000010000000000000000000010000100000000000000000000000000000000000000000000000000000000000000000000000000000000000000000000000000000000010000000000000000000000000000000000000000008000000000000000000000",
      "type": "0x2",
      "transactionHash": "0x5b1e5c1ef9508d2b8068a111409889d4dd4228f59c968acbda1d4f181482ad5d",
      "transactionIndex": "0x3c",
      "blockHash": "0xa2fec99bf8047ea59f8b0f03e946bf3f91517d028e37cbeedfa6ab3c055ec8b1",
      "blockNumber": "0x891af5",
      "gasUsed": "0x26bb4",
      "effectiveGasPrice": "0x1a4cd9bc",
      "from": "0x838abf92e994e088e641399e91ace43514038b90",
      "to": "0x615ee3feb9b6e2756f8b50cb9f5427f0c9f901c6",
      "contractAddress": null
    },
    {
      "status": "0x1",
      "cumulativeGasUsed": "0x7f9657",
      "logs": [
        {
          "address": "0x615ee3feb9b6e2756f8b50cb9f5427f0c9f901c6",
          "topics": [
            "0xe3d694c5a806e0218c9b1ba37becdabcfba6cf2245b7cd524dcad9ce82f01dbf",
            "0x0000000000000000000000000000000000000000000000000000000000000003",
            "0x000000000000000000000000c77bd586d9328467d4109a92137d7f7eee74739b"
          ],
          "data": "0x0000000000000000000000000000000000000000000000000000000000000002000000000000000000000000000000000000000000000000000000000000000100000000000000000000000000000000000000000000000000000000000000050000000000000000000000000000000000000000000000000000000000000003000000000000000000000000000000000000000000000000000000000000000a",
          "blockHash": "0xa2fec99bf8047ea59f8b0f03e946bf3f91517d028e37cbeedfa6ab3c055ec8b1",
          "blockNumber": "0x891af5",
          "blockTimestamp": "0x689e5e94",
          "transactionHash": "0x9a315dfb5721bdbaa1aa1a27f342ec9dec3354052e2015aa65528e1ed37ab483",
          "transactionIndex": "0x3d",
          "logIndex": "0x45",
          "removed": false
        }
      ],
      "logsBloom": "0x00000000000000000000000000000000000000000000000000000100000000000080000000000000000000000000000000000008020000000008000000000000000000000000000000000000000000000000000001000000000000000000000000000000000000000000000000000000000000000000000000000000000000000000000000000000000000000020000000000000000000000000000000000000000000000000000010002000000000000000000000800000000000000000400000000000000000000000000000000000000000000000000000000000000000010000000000000000000000000000000000000000000000000000000000000000",
      "type": "0x2",
      "transactionHash": "0x9a315dfb5721bdbaa1aa1a27f342ec9dec3354052e2015aa65528e1ed37ab483",
      "transactionIndex": "0x3d",
      "blockHash": "0xa2fec99bf8047ea59f8b0f03e946bf3f91517d028e37cbeedfa6ab3c055ec8b1",
      "blockNumber": "0x891af5",
      "gasUsed": "0x2bced",
      "effectiveGasPrice": "0x1a4cd9bc",
      "from": "0x838abf92e994e088e641399e91ace43514038b90",
      "to": "0x615ee3feb9b6e2756f8b50cb9f5427f0c9f901c6",
      "contractAddress": null
    },
    {
      "status": "0x1",
      "cumulativeGasUsed": "0x817870",
      "logs": [
        {
          "address": "0x9ddfaca8183c41ad55329bdeed9f6a8d53168b1b",
          "topics": [
            "0xeb0e3652e0f44f417695e6e90f2f42c99b65cd7169074c5a654b16b9748c3a4e",
            "0x787d74caea10b2b357790d5b5247c2f63d1d91572a9846f780606e4d953677ae",
            "0x516f2593dd0afc52e3e993fe013aba683fd9652538a0a6bacff98f51bd9c7ba5",
            "0x000000000000000000000000615ee3feb9b6e2756f8b50cb9f5427f0c9f901c6"
          ],
          "data": "0x1eac773b2360f3a007517592bd4660a3f80422b350c0b7c49b9723e9bd774008adf3f80f4294fbaa275575276016bb37f55ebd6788faf730d1491b1338d653f20000000000000000000000000000000000000000000000000000000000000003000000000000000000000000000000000000000000000000000000000000c350000000000000000000000000000000000000000000000000000000000000000100000000000000000000000000000000000000000000000000000000000000c0000000000000000000000000000000000000000000000000000000000000002492fd1338000000000000000000000000000000000000000000000000000000000000000000000000000000000000000000000000000000000000000000000000",
          "blockHash": "0xa2fec99bf8047ea59f8b0f03e946bf3f91517d028e37cbeedfa6ab3c055ec8b1",
          "blockNumber": "0x891af5",
          "blockTimestamp": "0x689e5e94",
          "transactionHash": "0x10096251b1f89796966a330840dcb18cdafc42298ccfee1514fb2cd9907b0b61",
          "transactionIndex": "0x3e",
          "logIndex": "0x46",
          "removed": false
        },
        {
          "address": "0x615ee3feb9b6e2756f8b50cb9f5427f0c9f901c6",
          "topics": [
            "0x3bd3ee391cdd8439843e438498447282de131a00cc9bf959ea0d529947cc95f4",
            "0x000000000000000000000000838abf92e994e088e641399e91ace43514038b90"
          ],
          "data": "0x000000000000000000000000000000000000000000000000002386f26fc100001eac773b2360f3a007517592bd4660a3f80422b350c0b7c49b9723e9bd774008",
          "blockHash": "0xa2fec99bf8047ea59f8b0f03e946bf3f91517d028e37cbeedfa6ab3c055ec8b1",
          "blockNumber": "0x891af5",
          "blockTimestamp": "0x689e5e94",
          "transactionHash": "0x10096251b1f89796966a330840dcb18cdafc42298ccfee1514fb2cd9907b0b61",
          "transactionIndex": "0x3e",
          "logIndex": "0x47",
          "removed": false
        }
      ],
      "logsBloom": "0x00000000000000000000000000000000000000000020000002000000000000000000000000000000000000000000000000000008000000000000000000000000000000004000000000000000000000000000000001000000002002000000000008010000000004000000000000000000000000000000000000000000000000000008000000000000000000010000000000000000040000000000000000000000000040000000000000000000000000000000000000000000000000000000000200000000000000000000000000004000000000000000000000000000000000010000004000000000000000000000000100001000008080004000000001000000",
      "type": "0x2",
      "transactionHash": "0x10096251b1f89796966a330840dcb18cdafc42298ccfee1514fb2cd9907b0b61",
      "transactionIndex": "0x3e",
      "blockHash": "0xa2fec99bf8047ea59f8b0f03e946bf3f91517d028e37cbeedfa6ab3c055ec8b1",
      "blockNumber": "0x891af5",
      "gasUsed": "0x1e219",
      "effectiveGasPrice": "0x1a4cd9bc",
      "from": "0x838abf92e994e088e641399e91ace43514038b90",
      "to": "0x615ee3feb9b6e2756f8b50cb9f5427f0c9f901c6",
      "contractAddress": null
    }
  ],
  "libraries": [],
  "pending": [],
  "returns": {},
  "timestamp": 1755209365,
  "chain": 11155111,
  "commit": "9113e2d"
}